{
  "contracts/L1.sol": {
    "L1Contract": {
      "abi": [
        {
          "inputs": [
            {
              "components": [
                {
                  "internalType": "uint256",
                  "name": "value",
                  "type": "uint256"
                },
                {
                  "internalType": "uint256",
                  "name": "nonce",
                  "type": "uint256"
                },
                {
                  "internalType": "address payable",
                  "name": "receiver",
                  "type": "address"
                },
                {
                  "internalType": "address",
                  "name": "sender",
                  "type": "address"
                },
                {
                  "internalType": "bytes32",
                  "name": "escrowHash",
                  "type": "bytes32"
                }
              ],
              "internalType": "struct WithdrawalTicket",
              "name": "ticket",
              "type": "tuple"
            },
            {
              "internalType": "bytes32",
              "name": "r",
              "type": "bytes32"
            },
            {
              "internalType": "bytes32",
              "name": "s",
              "type": "bytes32"
            },
            {
              "internalType": "uint8",
              "name": "v",
              "type": "uint8"
            }
          ],
          "name": "claimTicket",
          "outputs": [],
          "stateMutability": "nonpayable",
          "type": "function"
        },
        {
          "inputs": [],
          "name": "deposit",
          "outputs": [],
          "stateMutability": "payable",
          "type": "function"
        }
      ],
      "evm": {
        "bytecode": {
          "linkReferences": {},
          "object": "60806040526000805534801561001457600080fd5b5061095e806100246000396000f3fe6080604052600436106100295760003560e01c80631096f7d71461002e578063d0e30db014610057575b600080fd5b34801561003a57600080fd5b50610055600480360381019061005091906103a5565b610061565b005b61005f6102b5565b005b6000548460200135116100a9576040517f08c379a00000000000000000000000000000000000000000000000000000000081526004016100a09061046a565b60405180910390fd5b6000846040516020016100bc9190610684565b6040516020818303038152906040528051906020012090508460600160208101906100e7919061069f565b73ffffffffffffffffffffffffffffffffffffffff166001828487876040516000815260200160405260405161012094939291906106ea565b6020604051602081039080840390855afa158015610142573d6000803e3d6000fd5b5050506020604051035173ffffffffffffffffffffffffffffffffffffffff16146101a2576040517f08c379a00000000000000000000000000000000000000000000000000000000081526004016101999061077b565b60405180910390fd5b8460000135600160008760600160208101906101be919061069f565b73ffffffffffffffffffffffffffffffffffffffff1673ffffffffffffffffffffffffffffffffffffffff16815260200190815260200160002054101561023a576040517f08c379a00000000000000000000000000000000000000000000000000000000081526004016102319061080d565b60405180910390fd5b60008081548092919061024c9061085c565b919050555084604001602081019061026491906108a5565b73ffffffffffffffffffffffffffffffffffffffff166108fc86600001359081150290604051600060405180830381858888f193505050501580156102ad573d6000803e3d6000fd5b505050505050565b34600160003373ffffffffffffffffffffffffffffffffffffffff1673ffffffffffffffffffffffffffffffffffffffff168152602001908152602001600020600082825461030491906108d2565b92505081905550565b600080fd5b600080fd5b600060a0828403121561032d5761032c610312565b5b81905092915050565b6000819050919050565b61034981610336565b811461035457600080fd5b50565b60008135905061036681610340565b92915050565b600060ff82169050919050565b6103828161036c565b811461038d57600080fd5b50565b60008135905061039f81610379565b92915050565b60008060008061010085870312156103c0576103bf61030d565b5b60006103ce87828801610317565b94505060a06103df87828801610357565b93505060c06103f087828801610357565b92505060e061040187828801610390565b91505092959194509250565b600082825260208201905092915050565b7f5469636b6574206e6f6e636520697320746f6f206c6f77000000000000000000600082015250565b600061045460178361040d565b915061045f8261041e565b602082019050919050565b6000602082019050818103600083015261048381610447565b9050919050565b6000819050919050565b61049d8161048a565b81146104a857600080fd5b50565b6000813590506104ba81610494565b92915050565b60006104cf60208401846104ab565b905092915050565b6104e08161048a565b82525050565b600073ffffffffffffffffffffffffffffffffffffffff82169050919050565b6000610511826104e6565b9050919050565b61052181610506565b811461052c57600080fd5b50565b60008135905061053e81610518565b92915050565b6000610553602084018461052f565b905092915050565b61056481610506565b82525050565b6000610575826104e6565b9050919050565b6105858161056a565b811461059057600080fd5b50565b6000813590506105a28161057c565b92915050565b60006105b76020840184610593565b905092915050565b6105c88161056a565b82525050565b60006105dd6020840184610357565b905092915050565b6105ee81610336565b82525050565b60a0820161060560008301836104c0565b61061260008501826104d7565b5061062060208301836104c0565b61062d60208501826104d7565b5061063b6040830183610544565b610648604085018261055b565b5061065660608301836105a8565b61066360608501826105bf565b5061067160808301836105ce565b61067e60808501826105e5565b50505050565b600060a08201905061069960008301846105f4565b92915050565b6000602082840312156106b5576106b461030d565b5b60006106c384828501610593565b91505092915050565b6106d581610336565b82525050565b6106e48161036c565b82525050565b60006080820190506106ff60008301876106cc565b61070c60208301866106db565b61071960408301856106cc565b61072660608301846106cc565b95945050505050565b7f5469636b6574206973206e6f74207369676e65642062792073656e6465720000600082015250565b6000610765601e8361040d565b91506107708261072f565b602082019050919050565b6000602082019050818103600083015261079481610758565b9050919050565b7f53656e64657220646f6573206e6f74206861766520656e6f7567682066756e6460008201527f7300000000000000000000000000000000000000000000000000000000000000602082015250565b60006107f760218361040d565b91506108028261079b565b604082019050919050565b60006020820190508181036000830152610826816107ea565b9050919050565b7f4e487b7100000000000000000000000000000000000000000000000000000000600052601160045260246000fd5b60006108678261048a565b91507fffffffffffffffffffffffffffffffffffffffffffffffffffffffffffffffff82141561089a5761089961082d565b5b600182019050919050565b6000602082840312156108bb576108ba61030d565b5b60006108c98482850161052f565b91505092915050565b60006108dd8261048a565b91506108e88361048a565b9250827fffffffffffffffffffffffffffffffffffffffffffffffffffffffffffffffff0382111561091d5761091c61082d565b5b82820190509291505056fea2646970667358221220dde0f3f471940b6682f66884aa25d83a6ce81e7366dedf492760ef1b1d2bdf4664736f6c634300080a0033",
          "opcodes": "PUSH1 0x80 PUSH1 0x40 MSTORE PUSH1 0x0 DUP1 SSTORE CALLVALUE DUP1 ISZERO PUSH2 0x14 JUMPI PUSH1 0x0 DUP1 REVERT JUMPDEST POP PUSH2 0x95E DUP1 PUSH2 0x24 PUSH1 0x0 CODECOPY PUSH1 0x0 RETURN INVALID PUSH1 0x80 PUSH1 0x40 MSTORE PUSH1 0x4 CALLDATASIZE LT PUSH2 0x29 JUMPI PUSH1 0x0 CALLDATALOAD PUSH1 0xE0 SHR DUP1 PUSH4 0x1096F7D7 EQ PUSH2 0x2E JUMPI DUP1 PUSH4 0xD0E30DB0 EQ PUSH2 0x57 JUMPI JUMPDEST PUSH1 0x0 DUP1 REVERT JUMPDEST CALLVALUE DUP1 ISZERO PUSH2 0x3A JUMPI PUSH1 0x0 DUP1 REVERT JUMPDEST POP PUSH2 0x55 PUSH1 0x4 DUP1 CALLDATASIZE SUB DUP2 ADD SWAP1 PUSH2 0x50 SWAP2 SWAP1 PUSH2 0x3A5 JUMP JUMPDEST PUSH2 0x61 JUMP JUMPDEST STOP JUMPDEST PUSH2 0x5F PUSH2 0x2B5 JUMP JUMPDEST STOP JUMPDEST PUSH1 0x0 SLOAD DUP5 PUSH1 0x20 ADD CALLDATALOAD GT PUSH2 0xA9 JUMPI PUSH1 0x40 MLOAD PUSH32 0x8C379A000000000000000000000000000000000000000000000000000000000 DUP2 MSTORE PUSH1 0x4 ADD PUSH2 0xA0 SWAP1 PUSH2 0x46A JUMP JUMPDEST PUSH1 0x40 MLOAD DUP1 SWAP2 SUB SWAP1 REVERT JUMPDEST PUSH1 0x0 DUP5 PUSH1 0x40 MLOAD PUSH1 0x20 ADD PUSH2 0xBC SWAP2 SWAP1 PUSH2 0x684 JUMP JUMPDEST PUSH1 0x40 MLOAD PUSH1 0x20 DUP2 DUP4 SUB SUB DUP2 MSTORE SWAP1 PUSH1 0x40 MSTORE DUP1 MLOAD SWAP1 PUSH1 0x20 ADD KECCAK256 SWAP1 POP DUP5 PUSH1 0x60 ADD PUSH1 0x20 DUP2 ADD SWAP1 PUSH2 0xE7 SWAP2 SWAP1 PUSH2 0x69F JUMP JUMPDEST PUSH20 0xFFFFFFFFFFFFFFFFFFFFFFFFFFFFFFFFFFFFFFFF AND PUSH1 0x1 DUP3 DUP5 DUP8 DUP8 PUSH1 0x40 MLOAD PUSH1 0x0 DUP2 MSTORE PUSH1 0x20 ADD PUSH1 0x40 MSTORE PUSH1 0x40 MLOAD PUSH2 0x120 SWAP5 SWAP4 SWAP3 SWAP2 SWAP1 PUSH2 0x6EA JUMP JUMPDEST PUSH1 0x20 PUSH1 0x40 MLOAD PUSH1 0x20 DUP2 SUB SWAP1 DUP1 DUP5 SUB SWAP1 DUP6 GAS STATICCALL ISZERO DUP1 ISZERO PUSH2 0x142 JUMPI RETURNDATASIZE PUSH1 0x0 DUP1 RETURNDATACOPY RETURNDATASIZE PUSH1 0x0 REVERT JUMPDEST POP POP POP PUSH1 0x20 PUSH1 0x40 MLOAD SUB MLOAD PUSH20 0xFFFFFFFFFFFFFFFFFFFFFFFFFFFFFFFFFFFFFFFF AND EQ PUSH2 0x1A2 JUMPI PUSH1 0x40 MLOAD PUSH32 0x8C379A000000000000000000000000000000000000000000000000000000000 DUP2 MSTORE PUSH1 0x4 ADD PUSH2 0x199 SWAP1 PUSH2 0x77B JUMP JUMPDEST PUSH1 0x40 MLOAD DUP1 SWAP2 SUB SWAP1 REVERT JUMPDEST DUP5 PUSH1 0x0 ADD CALLDATALOAD PUSH1 0x1 PUSH1 0x0 DUP8 PUSH1 0x60 ADD PUSH1 0x20 DUP2 ADD SWAP1 PUSH2 0x1BE SWAP2 SWAP1 PUSH2 0x69F JUMP JUMPDEST PUSH20 0xFFFFFFFFFFFFFFFFFFFFFFFFFFFFFFFFFFFFFFFF AND PUSH20 0xFFFFFFFFFFFFFFFFFFFFFFFFFFFFFFFFFFFFFFFF AND DUP2 MSTORE PUSH1 0x20 ADD SWAP1 DUP2 MSTORE PUSH1 0x20 ADD PUSH1 0x0 KECCAK256 SLOAD LT ISZERO PUSH2 0x23A JUMPI PUSH1 0x40 MLOAD PUSH32 0x8C379A000000000000000000000000000000000000000000000000000000000 DUP2 MSTORE PUSH1 0x4 ADD PUSH2 0x231 SWAP1 PUSH2 0x80D JUMP JUMPDEST PUSH1 0x40 MLOAD DUP1 SWAP2 SUB SWAP1 REVERT JUMPDEST PUSH1 0x0 DUP1 DUP2 SLOAD DUP1 SWAP3 SWAP2 SWAP1 PUSH2 0x24C SWAP1 PUSH2 0x85C JUMP JUMPDEST SWAP2 SWAP1 POP SSTORE POP DUP5 PUSH1 0x40 ADD PUSH1 0x20 DUP2 ADD SWAP1 PUSH2 0x264 SWAP2 SWAP1 PUSH2 0x8A5 JUMP JUMPDEST PUSH20 0xFFFFFFFFFFFFFFFFFFFFFFFFFFFFFFFFFFFFFFFF AND PUSH2 0x8FC DUP7 PUSH1 0x0 ADD CALLDATALOAD SWAP1 DUP2 ISZERO MUL SWAP1 PUSH1 0x40 MLOAD PUSH1 0x0 PUSH1 0x40 MLOAD DUP1 DUP4 SUB DUP2 DUP6 DUP9 DUP9 CALL SWAP4 POP POP POP POP ISZERO DUP1 ISZERO PUSH2 0x2AD JUMPI RETURNDATASIZE PUSH1 0x0 DUP1 RETURNDATACOPY RETURNDATASIZE PUSH1 0x0 REVERT JUMPDEST POP POP POP POP POP POP JUMP JUMPDEST CALLVALUE PUSH1 0x1 PUSH1 0x0 CALLER PUSH20 0xFFFFFFFFFFFFFFFFFFFFFFFFFFFFFFFFFFFFFFFF AND PUSH20 0xFFFFFFFFFFFFFFFFFFFFFFFFFFFFFFFFFFFFFFFF AND DUP2 MSTORE PUSH1 0x20 ADD SWAP1 DUP2 MSTORE PUSH1 0x20 ADD PUSH1 0x0 KECCAK256 PUSH1 0x0 DUP3 DUP3 SLOAD PUSH2 0x304 SWAP2 SWAP1 PUSH2 0x8D2 JUMP JUMPDEST SWAP3 POP POP DUP2 SWAP1 SSTORE POP JUMP JUMPDEST PUSH1 0x0 DUP1 REVERT JUMPDEST PUSH1 0x0 DUP1 REVERT JUMPDEST PUSH1 0x0 PUSH1 0xA0 DUP3 DUP5 SUB SLT ISZERO PUSH2 0x32D JUMPI PUSH2 0x32C PUSH2 0x312 JUMP JUMPDEST JUMPDEST DUP2 SWAP1 POP SWAP3 SWAP2 POP POP JUMP JUMPDEST PUSH1 0x0 DUP2 SWAP1 POP SWAP2 SWAP1 POP JUMP JUMPDEST PUSH2 0x349 DUP2 PUSH2 0x336 JUMP JUMPDEST DUP2 EQ PUSH2 0x354 JUMPI PUSH1 0x0 DUP1 REVERT JUMPDEST POP JUMP JUMPDEST PUSH1 0x0 DUP2 CALLDATALOAD SWAP1 POP PUSH2 0x366 DUP2 PUSH2 0x340 JUMP JUMPDEST SWAP3 SWAP2 POP POP JUMP JUMPDEST PUSH1 0x0 PUSH1 0xFF DUP3 AND SWAP1 POP SWAP2 SWAP1 POP JUMP JUMPDEST PUSH2 0x382 DUP2 PUSH2 0x36C JUMP JUMPDEST DUP2 EQ PUSH2 0x38D JUMPI PUSH1 0x0 DUP1 REVERT JUMPDEST POP JUMP JUMPDEST PUSH1 0x0 DUP2 CALLDATALOAD SWAP1 POP PUSH2 0x39F DUP2 PUSH2 0x379 JUMP JUMPDEST SWAP3 SWAP2 POP POP JUMP JUMPDEST PUSH1 0x0 DUP1 PUSH1 0x0 DUP1 PUSH2 0x100 DUP6 DUP8 SUB SLT ISZERO PUSH2 0x3C0 JUMPI PUSH2 0x3BF PUSH2 0x30D JUMP JUMPDEST JUMPDEST PUSH1 0x0 PUSH2 0x3CE DUP8 DUP3 DUP9 ADD PUSH2 0x317 JUMP JUMPDEST SWAP5 POP POP PUSH1 0xA0 PUSH2 0x3DF DUP8 DUP3 DUP9 ADD PUSH2 0x357 JUMP JUMPDEST SWAP4 POP POP PUSH1 0xC0 PUSH2 0x3F0 DUP8 DUP3 DUP9 ADD PUSH2 0x357 JUMP JUMPDEST SWAP3 POP POP PUSH1 0xE0 PUSH2 0x401 DUP8 DUP3 DUP9 ADD PUSH2 0x390 JUMP JUMPDEST SWAP2 POP POP SWAP3 SWAP6 SWAP2 SWAP5 POP SWAP3 POP JUMP JUMPDEST PUSH1 0x0 DUP3 DUP3 MSTORE PUSH1 0x20 DUP3 ADD SWAP1 POP SWAP3 SWAP2 POP POP JUMP JUMPDEST PUSH32 0x5469636B6574206E6F6E636520697320746F6F206C6F77000000000000000000 PUSH1 0x0 DUP3 ADD MSTORE POP JUMP JUMPDEST PUSH1 0x0 PUSH2 0x454 PUSH1 0x17 DUP4 PUSH2 0x40D JUMP JUMPDEST SWAP2 POP PUSH2 0x45F DUP3 PUSH2 0x41E JUMP JUMPDEST PUSH1 0x20 DUP3 ADD SWAP1 POP SWAP2 SWAP1 POP JUMP JUMPDEST PUSH1 0x0 PUSH1 0x20 DUP3 ADD SWAP1 POP DUP2 DUP2 SUB PUSH1 0x0 DUP4 ADD MSTORE PUSH2 0x483 DUP2 PUSH2 0x447 JUMP JUMPDEST SWAP1 POP SWAP2 SWAP1 POP JUMP JUMPDEST PUSH1 0x0 DUP2 SWAP1 POP SWAP2 SWAP1 POP JUMP JUMPDEST PUSH2 0x49D DUP2 PUSH2 0x48A JUMP JUMPDEST DUP2 EQ PUSH2 0x4A8 JUMPI PUSH1 0x0 DUP1 REVERT JUMPDEST POP JUMP JUMPDEST PUSH1 0x0 DUP2 CALLDATALOAD SWAP1 POP PUSH2 0x4BA DUP2 PUSH2 0x494 JUMP JUMPDEST SWAP3 SWAP2 POP POP JUMP JUMPDEST PUSH1 0x0 PUSH2 0x4CF PUSH1 0x20 DUP5 ADD DUP5 PUSH2 0x4AB JUMP JUMPDEST SWAP1 POP SWAP3 SWAP2 POP POP JUMP JUMPDEST PUSH2 0x4E0 DUP2 PUSH2 0x48A JUMP JUMPDEST DUP3 MSTORE POP POP JUMP JUMPDEST PUSH1 0x0 PUSH20 0xFFFFFFFFFFFFFFFFFFFFFFFFFFFFFFFFFFFFFFFF DUP3 AND SWAP1 POP SWAP2 SWAP1 POP JUMP JUMPDEST PUSH1 0x0 PUSH2 0x511 DUP3 PUSH2 0x4E6 JUMP JUMPDEST SWAP1 POP SWAP2 SWAP1 POP JUMP JUMPDEST PUSH2 0x521 DUP2 PUSH2 0x506 JUMP JUMPDEST DUP2 EQ PUSH2 0x52C JUMPI PUSH1 0x0 DUP1 REVERT JUMPDEST POP JUMP JUMPDEST PUSH1 0x0 DUP2 CALLDATALOAD SWAP1 POP PUSH2 0x53E DUP2 PUSH2 0x518 JUMP JUMPDEST SWAP3 SWAP2 POP POP JUMP JUMPDEST PUSH1 0x0 PUSH2 0x553 PUSH1 0x20 DUP5 ADD DUP5 PUSH2 0x52F JUMP JUMPDEST SWAP1 POP SWAP3 SWAP2 POP POP JUMP JUMPDEST PUSH2 0x564 DUP2 PUSH2 0x506 JUMP JUMPDEST DUP3 MSTORE POP POP JUMP JUMPDEST PUSH1 0x0 PUSH2 0x575 DUP3 PUSH2 0x4E6 JUMP JUMPDEST SWAP1 POP SWAP2 SWAP1 POP JUMP JUMPDEST PUSH2 0x585 DUP2 PUSH2 0x56A JUMP JUMPDEST DUP2 EQ PUSH2 0x590 JUMPI PUSH1 0x0 DUP1 REVERT JUMPDEST POP JUMP JUMPDEST PUSH1 0x0 DUP2 CALLDATALOAD SWAP1 POP PUSH2 0x5A2 DUP2 PUSH2 0x57C JUMP JUMPDEST SWAP3 SWAP2 POP POP JUMP JUMPDEST PUSH1 0x0 PUSH2 0x5B7 PUSH1 0x20 DUP5 ADD DUP5 PUSH2 0x593 JUMP JUMPDEST SWAP1 POP SWAP3 SWAP2 POP POP JUMP JUMPDEST PUSH2 0x5C8 DUP2 PUSH2 0x56A JUMP JUMPDEST DUP3 MSTORE POP POP JUMP JUMPDEST PUSH1 0x0 PUSH2 0x5DD PUSH1 0x20 DUP5 ADD DUP5 PUSH2 0x357 JUMP JUMPDEST SWAP1 POP SWAP3 SWAP2 POP POP JUMP JUMPDEST PUSH2 0x5EE DUP2 PUSH2 0x336 JUMP JUMPDEST DUP3 MSTORE POP POP JUMP JUMPDEST PUSH1 0xA0 DUP3 ADD PUSH2 0x605 PUSH1 0x0 DUP4 ADD DUP4 PUSH2 0x4C0 JUMP JUMPDEST PUSH2 0x612 PUSH1 0x0 DUP6 ADD DUP3 PUSH2 0x4D7 JUMP JUMPDEST POP PUSH2 0x620 PUSH1 0x20 DUP4 ADD DUP4 PUSH2 0x4C0 JUMP JUMPDEST PUSH2 0x62D PUSH1 0x20 DUP6 ADD DUP3 PUSH2 0x4D7 JUMP JUMPDEST POP PUSH2 0x63B PUSH1 0x40 DUP4 ADD DUP4 PUSH2 0x544 JUMP JUMPDEST PUSH2 0x648 PUSH1 0x40 DUP6 ADD DUP3 PUSH2 0x55B JUMP JUMPDEST POP PUSH2 0x656 PUSH1 0x60 DUP4 ADD DUP4 PUSH2 0x5A8 JUMP JUMPDEST PUSH2 0x663 PUSH1 0x60 DUP6 ADD DUP3 PUSH2 0x5BF JUMP JUMPDEST POP PUSH2 0x671 PUSH1 0x80 DUP4 ADD DUP4 PUSH2 0x5CE JUMP JUMPDEST PUSH2 0x67E PUSH1 0x80 DUP6 ADD DUP3 PUSH2 0x5E5 JUMP JUMPDEST POP POP POP POP JUMP JUMPDEST PUSH1 0x0 PUSH1 0xA0 DUP3 ADD SWAP1 POP PUSH2 0x699 PUSH1 0x0 DUP4 ADD DUP5 PUSH2 0x5F4 JUMP JUMPDEST SWAP3 SWAP2 POP POP JUMP JUMPDEST PUSH1 0x0 PUSH1 0x20 DUP3 DUP5 SUB SLT ISZERO PUSH2 0x6B5 JUMPI PUSH2 0x6B4 PUSH2 0x30D JUMP JUMPDEST JUMPDEST PUSH1 0x0 PUSH2 0x6C3 DUP5 DUP3 DUP6 ADD PUSH2 0x593 JUMP JUMPDEST SWAP2 POP POP SWAP3 SWAP2 POP POP JUMP JUMPDEST PUSH2 0x6D5 DUP2 PUSH2 0x336 JUMP JUMPDEST DUP3 MSTORE POP POP JUMP JUMPDEST PUSH2 0x6E4 DUP2 PUSH2 0x36C JUMP JUMPDEST DUP3 MSTORE POP POP JUMP JUMPDEST PUSH1 0x0 PUSH1 0x80 DUP3 ADD SWAP1 POP PUSH2 0x6FF PUSH1 0x0 DUP4 ADD DUP8 PUSH2 0x6CC JUMP JUMPDEST PUSH2 0x70C PUSH1 0x20 DUP4 ADD DUP7 PUSH2 0x6DB JUMP JUMPDEST PUSH2 0x719 PUSH1 0x40 DUP4 ADD DUP6 PUSH2 0x6CC JUMP JUMPDEST PUSH2 0x726 PUSH1 0x60 DUP4 ADD DUP5 PUSH2 0x6CC JUMP JUMPDEST SWAP6 SWAP5 POP POP POP POP POP JUMP JUMPDEST PUSH32 0x5469636B6574206973206E6F74207369676E65642062792073656E6465720000 PUSH1 0x0 DUP3 ADD MSTORE POP JUMP JUMPDEST PUSH1 0x0 PUSH2 0x765 PUSH1 0x1E DUP4 PUSH2 0x40D JUMP JUMPDEST SWAP2 POP PUSH2 0x770 DUP3 PUSH2 0x72F JUMP JUMPDEST PUSH1 0x20 DUP3 ADD SWAP1 POP SWAP2 SWAP1 POP JUMP JUMPDEST PUSH1 0x0 PUSH1 0x20 DUP3 ADD SWAP1 POP DUP2 DUP2 SUB PUSH1 0x0 DUP4 ADD MSTORE PUSH2 0x794 DUP2 PUSH2 0x758 JUMP JUMPDEST SWAP1 POP SWAP2 SWAP1 POP JUMP JUMPDEST PUSH32 0x53656E64657220646F6573206E6F74206861766520656E6F7567682066756E64 PUSH1 0x0 DUP3 ADD MSTORE PUSH32 0x7300000000000000000000000000000000000000000000000000000000000000 PUSH1 0x20 DUP3 ADD MSTORE POP JUMP JUMPDEST PUSH1 0x0 PUSH2 0x7F7 PUSH1 0x21 DUP4 PUSH2 0x40D JUMP JUMPDEST SWAP2 POP PUSH2 0x802 DUP3 PUSH2 0x79B JUMP JUMPDEST PUSH1 0x40 DUP3 ADD SWAP1 POP SWAP2 SWAP1 POP JUMP JUMPDEST PUSH1 0x0 PUSH1 0x20 DUP3 ADD SWAP1 POP DUP2 DUP2 SUB PUSH1 0x0 DUP4 ADD MSTORE PUSH2 0x826 DUP2 PUSH2 0x7EA JUMP JUMPDEST SWAP1 POP SWAP2 SWAP1 POP JUMP JUMPDEST PUSH32 0x4E487B7100000000000000000000000000000000000000000000000000000000 PUSH1 0x0 MSTORE PUSH1 0x11 PUSH1 0x4 MSTORE PUSH1 0x24 PUSH1 0x0 REVERT JUMPDEST PUSH1 0x0 PUSH2 0x867 DUP3 PUSH2 0x48A JUMP JUMPDEST SWAP2 POP PUSH32 0xFFFFFFFFFFFFFFFFFFFFFFFFFFFFFFFFFFFFFFFFFFFFFFFFFFFFFFFFFFFFFFFF DUP3 EQ ISZERO PUSH2 0x89A JUMPI PUSH2 0x899 PUSH2 0x82D JUMP JUMPDEST JUMPDEST PUSH1 0x1 DUP3 ADD SWAP1 POP SWAP2 SWAP1 POP JUMP JUMPDEST PUSH1 0x0 PUSH1 0x20 DUP3 DUP5 SUB SLT ISZERO PUSH2 0x8BB JUMPI PUSH2 0x8BA PUSH2 0x30D JUMP JUMPDEST JUMPDEST PUSH1 0x0 PUSH2 0x8C9 DUP5 DUP3 DUP6 ADD PUSH2 0x52F JUMP JUMPDEST SWAP2 POP POP SWAP3 SWAP2 POP POP JUMP JUMPDEST PUSH1 0x0 PUSH2 0x8DD DUP3 PUSH2 0x48A JUMP JUMPDEST SWAP2 POP PUSH2 0x8E8 DUP4 PUSH2 0x48A JUMP JUMPDEST SWAP3 POP DUP3 PUSH32 0xFFFFFFFFFFFFFFFFFFFFFFFFFFFFFFFFFFFFFFFFFFFFFFFFFFFFFFFFFFFFFFFF SUB DUP3 GT ISZERO PUSH2 0x91D JUMPI PUSH2 0x91C PUSH2 0x82D JUMP JUMPDEST JUMPDEST DUP3 DUP3 ADD SWAP1 POP SWAP3 SWAP2 POP POP JUMP INVALID LOG2 PUSH5 0x6970667358 0x22 SLT KECCAK256 0xDD 0xE0 RETURN DELEGATECALL PUSH18 0x940B6682F66884AA25D83A6CE81E7366DEDF 0x49 0x27 PUSH1 0xEF SHL SAR 0x2B 0xDF CHAINID PUSH5 0x736F6C6343 STOP ADDMOD EXP STOP CALLER "
        },
        "methodIdentifiers": {
          "claimTicket((uint256,uint256,address,address,bytes32),bytes32,bytes32,uint8)": "1096f7d7",
          "deposit()": "d0e30db0"
        }
      }
    }
  }
}