{
  "_format": "hh-sol-artifact-1",
  "contractName": "L2Contract",
  "sourceName": "contracts/L2.sol",
  "abi": [
    {
      "inputs": [
        {
          "components": [
            {
              "internalType": "uint256",
              "name": "value",
              "type": "uint256"
            },
            {
              "internalType": "uint256",
              "name": "nonce",
              "type": "uint256"
            },
            {
              "internalType": "address payable",
              "name": "receiver",
              "type": "address"
            },
            {
              "internalType": "address",
              "name": "sender",
              "type": "address"
            },
            {
              "internalType": "bytes32",
              "name": "escrowHash",
              "type": "bytes32"
            }
          ],
          "internalType": "struct WithdrawalTicket",
          "name": "ticket",
          "type": "tuple"
        },
        {
          "internalType": "bytes32",
          "name": "ticketSignature",
          "type": "bytes32"
        }
      ],
      "name": "commitToWithdrawal",
      "outputs": [],
      "stateMutability": "nonpayable",
      "type": "function"
    },
    {
      "inputs": [
        {
          "internalType": "address payable",
          "name": "receiver",
          "type": "address"
        },
        {
          "internalType": "bytes32",
          "name": "escrowHash",
          "type": "bytes32"
        },
        {
          "internalType": "uint256",
          "name": "payoutDate",
          "type": "uint256"
        },
        {
          "internalType": "uint256",
          "name": "reclaimDate",
          "type": "uint256"
        }
      ],
      "name": "lockFundsInEscrow",
      "outputs": [],
      "stateMutability": "payable",
      "type": "function"
    },
    {
      "inputs": [
        {
          "components": [
            {
              "internalType": "uint256",
              "name": "value",
              "type": "uint256"
            },
            {
              "internalType": "uint256",
              "name": "nonce",
              "type": "uint256"
            },
            {
              "internalType": "address payable",
              "name": "receiver",
              "type": "address"
            },
            {
              "internalType": "address",
              "name": "sender",
              "type": "address"
            },
            {
              "internalType": "bytes32",
              "name": "escrowHash",
              "type": "bytes32"
            }
          ],
          "internalType": "struct WithdrawalTicket",
          "name": "commitedTicket",
          "type": "tuple"
        },
        {
          "internalType": "bytes32",
          "name": "firstSignature",
          "type": "bytes32"
        },
        {
          "components": [
            {
              "internalType": "uint256",
              "name": "value",
              "type": "uint256"
            },
            {
              "internalType": "uint256",
              "name": "nonce",
              "type": "uint256"
            },
            {
              "internalType": "address payable",
              "name": "receiver",
              "type": "address"
            },
            {
              "internalType": "address",
              "name": "sender",
              "type": "address"
            },
            {
              "internalType": "bytes32",
              "name": "escrowHash",
              "type": "bytes32"
            }
          ],
          "internalType": "struct WithdrawalTicket",
          "name": "secondTicket",
          "type": "tuple"
        },
        {
          "internalType": "bytes32",
          "name": "secondSignature",
          "type": "bytes32"
        },
        {
          "internalType": "bytes32",
          "name": "escrowSecret",
          "type": "bytes32"
        }
      ],
      "name": "proveFraud",
      "outputs": [],
      "stateMutability": "nonpayable",
      "type": "function"
    },
    {
      "inputs": [
        {
          "internalType": "address payable",
          "name": "receiver",
          "type": "address"
        },
        {
          "internalType": "bytes32[]",
          "name": "escrowSecret",
          "type": "bytes32[]"
        }
      ],
      "name": "reclaimFunds",
      "outputs": [],
      "stateMutability": "nonpayable",
      "type": "function"
    },
    {
      "inputs": [
        {
          "internalType": "bytes32",
          "name": "",
          "type": "bytes32"
        },
        {
          "internalType": "bytes32",
          "name": "",
          "type": "bytes32"
        }
      ],
      "name": "recoverSigner",
      "outputs": [
        {
          "internalType": "address",
          "name": "",
          "type": "address"
        }
      ],
      "stateMutability": "pure",
      "type": "function"
    },
    {
      "inputs": [
        {
          "internalType": "bytes32[]",
          "name": "escrowSecret",
          "type": "bytes32[]"
        }
      ],
      "name": "transferFunds",
      "outputs": [],
      "stateMutability": "nonpayable",
      "type": "function"
    }
  ],
  "bytecode": "0x6080604052600060015534801561001557600080fd5b50611a2b806100256000396000f3fe6080604052600436106100555760003560e01c806351b4fcf01461005a57806362787e7a1461008357806379ba61c9146100ac578063aac88323146100e9578063b8498d1414610105578063e225cd8e1461012e575b600080fd5b34801561006657600080fd5b50610081600480360381019061007c9190610e79565b610157565b005b34801561008f57600080fd5b506100aa60048036038101906100a59190610f20565b610381565b005b3480156100b857600080fd5b506100d360048036038101906100ce9190610f60565b610501565b6040516100e09190610fe1565b60405180910390f35b61010360048036038101906100fe9190611070565b610509565b005b34801561011157600080fd5b5061012c600480360381019061012791906110d7565b61083a565b005b34801561013a57600080fd5b5061015560048036038101906101509190611137565b610a65565b005b60008060003373ffffffffffffffffffffffffffffffffffffffff1673ffffffffffffffffffffffffffffffffffffffff1681526020019081526020016000206040518060c00160405290816000820160009054906101000a900473ffffffffffffffffffffffffffffffffffffffff1673ffffffffffffffffffffffffffffffffffffffff1673ffffffffffffffffffffffffffffffffffffffff1681526020016001820160009054906101000a900473ffffffffffffffffffffffffffffffffffffffff1673ffffffffffffffffffffffffffffffffffffffff1673ffffffffffffffffffffffffffffffffffffffff168152602001600282015481526020016003820154815260200160048201548152602001600582015481525050905042816060015110156102bf576040517f08c379a00000000000000000000000000000000000000000000000000000000081526004016102b690611212565b60405180910390fd5b82826040516020016102d29291906112b3565b604051602081830303815290604052805190602001208160a001511461032d576040517f08c379a000000000000000000000000000000000000000000000000000000000815260040161032490611323565b60405180910390fd5b806000015173ffffffffffffffffffffffffffffffffffffffff166108fc82604001519081150290604051600060405180830381858888f1935050505015801561037b573d6000803e3d6000fd5b50505050565b6001805461038f9190611372565b8260200135146103d4576040517f08c379a00000000000000000000000000000000000000000000000000000000081526004016103cb9061143a565b60405180910390fd5b6000826040516020016103e791906115ae565b604051602081830303815290604052805190602001209050600061040b8284610501565b90508073ffffffffffffffffffffffffffffffffffffffff1684606001602081019061043791906115c9565b73ffffffffffffffffffffffffffffffffffffffff161461048d576040517f08c379a000000000000000000000000000000000000000000000000000000000815260040161048490611668565b60405180910390fd5b600160008154809291906104a090611688565b919050555081600260008660600160208101906104bd91906115c9565b73ffffffffffffffffffffffffffffffffffffffff1673ffffffffffffffffffffffffffffffffffffffff1681526020019081526020016000208190555050505050565b600092915050565b60008060008673ffffffffffffffffffffffffffffffffffffffff1673ffffffffffffffffffffffffffffffffffffffff1681526020019081526020016000206040518060c00160405290816000820160009054906101000a900473ffffffffffffffffffffffffffffffffffffffff1673ffffffffffffffffffffffffffffffffffffffff1673ffffffffffffffffffffffffffffffffffffffff1681526020016001820160009054906101000a900473ffffffffffffffffffffffffffffffffffffffff1673ffffffffffffffffffffffffffffffffffffffff1673ffffffffffffffffffffffffffffffffffffffff16815260200160028201548152602001600382015481526020016004820154815260200160058201548152505090506000816040015114610671576040517f08c379a00000000000000000000000000000000000000000000000000000000081526004016106689061171d565b60405180910390fd5b3373ffffffffffffffffffffffffffffffffffffffff16816020015173ffffffffffffffffffffffffffffffffffffffff16146106e3576040517f08c379a00000000000000000000000000000000000000000000000000000000081526004016106da906117af565b60405180910390fd5b6040518060c001604052808673ffffffffffffffffffffffffffffffffffffffff1681526020013373ffffffffffffffffffffffffffffffffffffffff168152602001348152602001848152602001838152602001858152506000808773ffffffffffffffffffffffffffffffffffffffff1673ffffffffffffffffffffffffffffffffffffffff16815260200190815260200160002060008201518160000160006101000a81548173ffffffffffffffffffffffffffffffffffffffff021916908373ffffffffffffffffffffffffffffffffffffffff16021790555060208201518160010160006101000a81548173ffffffffffffffffffffffffffffffffffffffff021916908373ffffffffffffffffffffffffffffffffffffffff16021790555060408201518160020155606082015181600301556080820151816004015560a082015181600501559050505050505050565b60008060008573ffffffffffffffffffffffffffffffffffffffff1673ffffffffffffffffffffffffffffffffffffffff1681526020019081526020016000206040518060c00160405290816000820160009054906101000a900473ffffffffffffffffffffffffffffffffffffffff1673ffffffffffffffffffffffffffffffffffffffff1673ffffffffffffffffffffffffffffffffffffffff1681526020016001820160009054906101000a900473ffffffffffffffffffffffffffffffffffffffff1673ffffffffffffffffffffffffffffffffffffffff1673ffffffffffffffffffffffffffffffffffffffff168152602001600282015481526020016003820154815260200160048201548152602001600582015481525050905042816080015110156109a2576040517f08c379a00000000000000000000000000000000000000000000000000000000081526004016109999061181b565b60405180910390fd5b82826040516020016109b59291906112b3565b604051602081830303815290604052805190602001208160a0015114610a10576040517f08c379a0000000000000000000000000000000000000000000000000000000008152600401610a0790611323565b60405180910390fd5b806020015173ffffffffffffffffffffffffffffffffffffffff166108fc82604001519081150290604051600060405180830381858888f19350505050158015610a5e573d6000803e3d6000fd5b5050505050565b600085604051602001610a7891906115ae565b6040516020818303038152906040528051906020012090506000610a9c8287610501565b9050600085604051602001610ab191906115ae565b6040516020818303038152906040528051906020012090506000610ad58287610501565b90508073ffffffffffffffffffffffffffffffffffffffff168373ffffffffffffffffffffffffffffffffffffffff1614610b45576040517f08c379a0000000000000000000000000000000000000000000000000000000008152600401610b3c906118ad565b60405180910390fd5b83600260008b6060016020810190610b5d91906115c9565b73ffffffffffffffffffffffffffffffffffffffff1673ffffffffffffffffffffffffffffffffffffffff1681526020019081526020016000205414610bd8576040517f08c379a0000000000000000000000000000000000000000000000000000000008152600401610bcf90611919565b60405180910390fd5b8660200135896020013514610c22576040517f08c379a0000000000000000000000000000000000000000000000000000000008152600401610c19906119ab565b60405180910390fd5b60008060003373ffffffffffffffffffffffffffffffffffffffff1673ffffffffffffffffffffffffffffffffffffffff1681526020019081526020016000206040518060c00160405290816000820160009054906101000a900473ffffffffffffffffffffffffffffffffffffffff1673ffffffffffffffffffffffffffffffffffffffff1673ffffffffffffffffffffffffffffffffffffffff1681526020016001820160009054906101000a900473ffffffffffffffffffffffffffffffffffffffff1673ffffffffffffffffffffffffffffffffffffffff1673ffffffffffffffffffffffffffffffffffffffff168152602001600282015481526020016003820154815260200160048201548152602001600582015481525050905085604051602001610d5491906119da565b604051602081830303815290604052805190602001208160a0015114610daf576040517f08c379a0000000000000000000000000000000000000000000000000000000008152600401610da690611323565b60405180910390fd5b806000015173ffffffffffffffffffffffffffffffffffffffff166108fc82604001519081150290604051600060405180830381858888f19350505050158015610dfd573d6000803e3d6000fd5b5050505050505050505050565b600080fd5b600080fd5b600080fd5b600080fd5b600080fd5b60008083601f840112610e3957610e38610e14565b5b8235905067ffffffffffffffff811115610e5657610e55610e19565b5b602083019150836020820283011115610e7257610e71610e1e565b5b9250929050565b60008060208385031215610e9057610e8f610e0a565b5b600083013567ffffffffffffffff811115610eae57610ead610e0f565b5b610eba85828601610e23565b92509250509250929050565b600080fd5b600060a08284031215610ee157610ee0610ec6565b5b81905092915050565b6000819050919050565b610efd81610eea565b8114610f0857600080fd5b50565b600081359050610f1a81610ef4565b92915050565b60008060c08385031215610f3757610f36610e0a565b5b6000610f4585828601610ecb565b92505060a0610f5685828601610f0b565b9150509250929050565b60008060408385031215610f7757610f76610e0a565b5b6000610f8585828601610f0b565b9250506020610f9685828601610f0b565b9150509250929050565b600073ffffffffffffffffffffffffffffffffffffffff82169050919050565b6000610fcb82610fa0565b9050919050565b610fdb81610fc0565b82525050565b6000602082019050610ff66000830184610fd2565b92915050565b600061100782610fa0565b9050919050565b61101781610ffc565b811461102257600080fd5b50565b6000813590506110348161100e565b92915050565b6000819050919050565b61104d8161103a565b811461105857600080fd5b50565b60008135905061106a81611044565b92915050565b6000806000806080858703121561108a57611089610e0a565b5b600061109887828801611025565b94505060206110a987828801610f0b565b93505060406110ba8782880161105b565b92505060606110cb8782880161105b565b91505092959194509250565b6000806000604084860312156110f0576110ef610e0a565b5b60006110fe86828701611025565b935050602084013567ffffffffffffffff81111561111f5761111e610e0f565b5b61112b86828701610e23565b92509250509250925092565b60008060008060006101a0868803121561115457611153610e0a565b5b600061116288828901610ecb565b95505060a061117388828901610f0b565b94505060c061118488828901610ecb565b93505061016061119688828901610f0b565b9250506101806111a888828901610f0b565b9150509295509295909350565b600082825260208201905092915050565b7f46756e647320617265206e6f742070617961626c65207965742e000000000000600082015250565b60006111fc601a836111b5565b9150611207826111c6565b602082019050919050565b6000602082019050818103600083015261122b816111ef565b9050919050565b600082825260208201905092915050565b600080fd5b82818337600083830152505050565b60006112638385611232565b93507f07ffffffffffffffffffffffffffffffffffffffffffffffffffffffffffffff83111561129657611295611243565b5b6020830292506112a7838584611248565b82840190509392505050565b600060208201905081810360008301526112ce818486611257565b90509392505050565b7f496e76616c696420707265696d6167652e000000000000000000000000000000600082015250565b600061130d6011836111b5565b9150611318826112d7565b602082019050919050565b6000602082019050818103600083015261133c81611300565b9050919050565b7f4e487b7100000000000000000000000000000000000000000000000000000000600052601160045260246000fd5b600061137d8261103a565b91506113888361103a565b9250827fffffffffffffffffffffffffffffffffffffffffffffffffffffffffffffffff038211156113bd576113bc611343565b5b828201905092915050565b7f546865207469636b6574206d7573742075736520746865206e657874206e6f6e60008201527f63652e0000000000000000000000000000000000000000000000000000000000602082015250565b60006114246023836111b5565b915061142f826113c8565b604082019050919050565b6000602082019050818103600083015261145381611417565b9050919050565b6000611469602084018461105b565b905092915050565b61147a8161103a565b82525050565b600061148f6020840184611025565b905092915050565b6114a081610ffc565b82525050565b6114af81610fc0565b81146114ba57600080fd5b50565b6000813590506114cc816114a6565b92915050565b60006114e160208401846114bd565b905092915050565b6114f281610fc0565b82525050565b60006115076020840184610f0b565b905092915050565b61151881610eea565b82525050565b60a0820161152f600083018361145a565b61153c6000850182611471565b5061154a602083018361145a565b6115576020850182611471565b506115656040830183611480565b6115726040850182611497565b5061158060608301836114d2565b61158d60608501826114e9565b5061159b60808301836114f8565b6115a8608085018261150f565b50505050565b600060a0820190506115c3600083018461151e565b92915050565b6000602082840312156115df576115de610e0a565b5b60006115ed848285016114bd565b91505092915050565b7f546865207469636b6574206d757374206265207369676e65642062792074686560008201527f2073656e6465722e000000000000000000000000000000000000000000000000602082015250565b60006116526028836111b5565b915061165d826115f6565b604082019050919050565b6000602082019050818103600083015261168181611645565b9050919050565b60006116938261103a565b91507fffffffffffffffffffffffffffffffffffffffffffffffffffffffffffffffff8214156116c6576116c5611343565b5b600182019050919050565b7f46756e647320616c7265616479206c6f636b656420696e20657363726f770000600082015250565b6000611707601e836111b5565b9150611712826116d1565b602082019050919050565b60006020820190508181036000830152611736816116fa565b9050919050565b7f43616e6e6f742061646420616e20656e74727920666f7220612064696666657260008201527f656e742061646472657373000000000000000000000000000000000000000000602082015250565b6000611799602b836111b5565b91506117a48261173d565b604082019050919050565b600060208201905081810360008301526117c88161178c565b9050919050565b7f46756e647320617265206e6f74207265636c61696d61626c65207965742e0000600082015250565b6000611805601e836111b5565b9150611810826117cf565b602082019050919050565b60006020820190508181036000830152611834816117f8565b9050919050565b7f5468652074776f207469636b657473206d757374206265207369676e6564206260008201527f79207468652073616d65207369676e65722e0000000000000000000000000000602082015250565b60006118976032836111b5565b91506118a28261183b565b604082019050919050565b600060208201905081810360008301526118c68161188a565b9050919050565b7f546865207469636b6574206d75737420626520636f6d6d6974656420746f0000600082015250565b6000611903601e836111b5565b915061190e826118cd565b602082019050919050565b60006020820190508181036000830152611932816118f6565b9050919050565b7f5468652074776f207469636b657473206d75737420686176652074686520736160008201527f6d65206e6f6e63652e0000000000000000000000000000000000000000000000602082015250565b60006119956029836111b5565b91506119a082611939565b604082019050919050565b600060208201905081810360008301526119c481611988565b9050919050565b6119d481610eea565b82525050565b60006020820190506119ef60008301846119cb565b9291505056fea26469706673582212203f328cab7ed7f2a2c09b124c659d420eeaabeea132af075376de2f0e9ff70ad464736f6c634300080a0033",
  "linkReferences": {},
  "deployedLinkReferences": {}
}