{
  "_format": "hh-sol-artifact-1",
  "contractName": "L1Contract",
  "sourceName": "contracts/L1.sol",
  "abi": [
    {
      "inputs": [
        {
          "components": [
            {
              "internalType": "uint256",
              "name": "value",
              "type": "uint256"
            },
            {
              "internalType": "uint256",
              "name": "nonce",
              "type": "uint256"
            },
            {
              "internalType": "address payable",
              "name": "receiver",
              "type": "address"
            },
            {
              "internalType": "address",
              "name": "sender",
              "type": "address"
            },
            {
              "internalType": "bytes32",
              "name": "escrowHash",
              "type": "bytes32"
            }
          ],
          "internalType": "struct WithdrawalTicket",
          "name": "ticket",
          "type": "tuple"
        },
        {
          "internalType": "bytes32",
          "name": "r",
          "type": "bytes32"
        },
        {
          "internalType": "bytes32",
          "name": "s",
          "type": "bytes32"
        },
        {
          "internalType": "uint8",
          "name": "v",
          "type": "uint8"
        }
      ],
      "name": "claimTicket",
      "outputs": [],
      "stateMutability": "nonpayable",
      "type": "function"
    },
    {
      "inputs": [],
      "name": "deposit",
      "outputs": [],
      "stateMutability": "payable",
      "type": "function"
    }
  ],
  "bytecode": "0x60806040526000805534801561001457600080fd5b5061095e806100246000396000f3fe6080604052600436106100295760003560e01c80631096f7d71461002e578063d0e30db014610057575b600080fd5b34801561003a57600080fd5b50610055600480360381019061005091906103a5565b610061565b005b61005f6102b5565b005b6000548460200135116100a9576040517f08c379a00000000000000000000000000000000000000000000000000000000081526004016100a09061046a565b60405180910390fd5b6000846040516020016100bc9190610684565b6040516020818303038152906040528051906020012090508460600160208101906100e7919061069f565b73ffffffffffffffffffffffffffffffffffffffff166001828487876040516000815260200160405260405161012094939291906106ea565b6020604051602081039080840390855afa158015610142573d6000803e3d6000fd5b5050506020604051035173ffffffffffffffffffffffffffffffffffffffff16146101a2576040517f08c379a00000000000000000000000000000000000000000000000000000000081526004016101999061077b565b60405180910390fd5b8460000135600160008760600160208101906101be919061069f565b73ffffffffffffffffffffffffffffffffffffffff1673ffffffffffffffffffffffffffffffffffffffff16815260200190815260200160002054101561023a576040517f08c379a00000000000000000000000000000000000000000000000000000000081526004016102319061080d565b60405180910390fd5b60008081548092919061024c9061085c565b919050555084604001602081019061026491906108a5565b73ffffffffffffffffffffffffffffffffffffffff166108fc86600001359081150290604051600060405180830381858888f193505050501580156102ad573d6000803e3d6000fd5b505050505050565b34600160003373ffffffffffffffffffffffffffffffffffffffff1673ffffffffffffffffffffffffffffffffffffffff168152602001908152602001600020600082825461030491906108d2565b92505081905550565b600080fd5b600080fd5b600060a0828403121561032d5761032c610312565b5b81905092915050565b6000819050919050565b61034981610336565b811461035457600080fd5b50565b60008135905061036681610340565b92915050565b600060ff82169050919050565b6103828161036c565b811461038d57600080fd5b50565b60008135905061039f81610379565b92915050565b60008060008061010085870312156103c0576103bf61030d565b5b60006103ce87828801610317565b94505060a06103df87828801610357565b93505060c06103f087828801610357565b92505060e061040187828801610390565b91505092959194509250565b600082825260208201905092915050565b7f5469636b6574206e6f6e636520697320746f6f206c6f77000000000000000000600082015250565b600061045460178361040d565b915061045f8261041e565b602082019050919050565b6000602082019050818103600083015261048381610447565b9050919050565b6000819050919050565b61049d8161048a565b81146104a857600080fd5b50565b6000813590506104ba81610494565b92915050565b60006104cf60208401846104ab565b905092915050565b6104e08161048a565b82525050565b600073ffffffffffffffffffffffffffffffffffffffff82169050919050565b6000610511826104e6565b9050919050565b61052181610506565b811461052c57600080fd5b50565b60008135905061053e81610518565b92915050565b6000610553602084018461052f565b905092915050565b61056481610506565b82525050565b6000610575826104e6565b9050919050565b6105858161056a565b811461059057600080fd5b50565b6000813590506105a28161057c565b92915050565b60006105b76020840184610593565b905092915050565b6105c88161056a565b82525050565b60006105dd6020840184610357565b905092915050565b6105ee81610336565b82525050565b60a0820161060560008301836104c0565b61061260008501826104d7565b5061062060208301836104c0565b61062d60208501826104d7565b5061063b6040830183610544565b610648604085018261055b565b5061065660608301836105a8565b61066360608501826105bf565b5061067160808301836105ce565b61067e60808501826105e5565b50505050565b600060a08201905061069960008301846105f4565b92915050565b6000602082840312156106b5576106b461030d565b5b60006106c384828501610593565b91505092915050565b6106d581610336565b82525050565b6106e48161036c565b82525050565b60006080820190506106ff60008301876106cc565b61070c60208301866106db565b61071960408301856106cc565b61072660608301846106cc565b95945050505050565b7f5469636b6574206973206e6f74207369676e65642062792073656e6465720000600082015250565b6000610765601e8361040d565b91506107708261072f565b602082019050919050565b6000602082019050818103600083015261079481610758565b9050919050565b7f53656e64657220646f6573206e6f74206861766520656e6f7567682066756e6460008201527f7300000000000000000000000000000000000000000000000000000000000000602082015250565b60006107f760218361040d565b91506108028261079b565b604082019050919050565b60006020820190508181036000830152610826816107ea565b9050919050565b7f4e487b7100000000000000000000000000000000000000000000000000000000600052601160045260246000fd5b60006108678261048a565b91507fffffffffffffffffffffffffffffffffffffffffffffffffffffffffffffffff82141561089a5761089961082d565b5b600182019050919050565b6000602082840312156108bb576108ba61030d565b5b60006108c98482850161052f565b91505092915050565b60006108dd8261048a565b91506108e88361048a565b9250827fffffffffffffffffffffffffffffffffffffffffffffffffffffffffffffffff0382111561091d5761091c61082d565b5b82820190509291505056fea2646970667358221220dde0f3f471940b6682f66884aa25d83a6ce81e7366dedf492760ef1b1d2bdf4664736f6c634300080a0033",
  "linkReferences": {},
  "deployedLinkReferences": {}
}